:020000040800F2
:100000000050002011720008DF6F0008E76F000841
:10001000EF6F0008F76F0008FF6F00080000000096
:100020000000000000000000000000000770000851
:1000300013700008000000001F7000082B700008FB
:100040005972000859720008597200085972000864
:100050005972000859720008597200085972000854
:100060005972000859720008597200085972000844
:100070005972000859720008597200083970000856
:100080005972000859720008597200085972000824
:10009000597200085972000859720008BD6F0008B3
:1000A0005972000859720008597200085972000804
:1000B0004D70000859720008597200085972000802
:1000C00059720008597200085972000859720008E4
:1000D0005972000831650008597200085972000809
:1000E0005972000859720008597200080000000097
:1000F0000000000000000000000000000000000000
:0C01000000000000000000005FF808F1A3
:1001100010B5054C237833B9044B13B10448AFF341
:1001200000800123237010BD840000200000000027
:100130006CA2000808B5034B1BB103490348AFF399
:10014000008008BD00000000880000206CA20008AC
:1001500081F0004102E000BF83F0004330B54FEA78
:1001600041044FEA430594EA050F08BF90EA020FE5
:100170001FBF54EA000C55EA020C7FEA645C7FEA78
:10018000655C00F0E2804FEA5454D4EB5555B8BF9B
:100190006D420CDD2C4480EA020281EA030382EA0C
:1001A000000083EA010180EA020281EA0303362D9E
:1001B00088BF30BD11F0004F4FEA01314FF4801C71
:1001C0004CEA113102D0404261EB410113F0004F83
:1001D0004FEA03334CEA133302D0524263EB43033A
:1001E00094EA050F00F0A780A4F10104D5F1200ED8
:1001F0000DDB02FA0EFC22FA05F2801841F1000133
:1002000003FA0EF2801843FA05F359410EE0A5F106
:1002100020050EF1200E012A03FA0EFC28BF4CF037
:10022000020C43FA05F3C01851EBE37101F00045ED
:1002300007D54FF0000EDCF1000C7EEB00006EEBFA
:100240000101B1F5801F1BD3B1F5001F0CD3490884
:100250005FEA30004FEA3C0C04F101044FEA4452DB
:1002600012F5800F80F09A80BCF1004F08BF5FEA62
:10027000500C50F1000041EB045141EA050130BD42
:100280005FEA4C0C404141EB0101013C28BFB1F554
:10029000801FE9D291F0000F04BF01460020B1FA9F
:1002A00081F308BF2033A3F10B03B3F120020CDA72
:1002B0000C3208DD02F1140CC2F10C0201FA0CF050
:1002C00021FA02F10CE002F11402D8BFC2F1200CB5
:1002D00001FA02F120FA0CFCDCBF41EA0C0190406B
:1002E000E41AA2BF01EB0451294330BD6FEA0404B4
:1002F0001F3C1CDA0C340EDC04F11404C4F120029F
:1003000020FA04F001FA02F340EA030021FA04F3B0
:1003100045EA030130BDC4F10C04C4F1200220FA07
:1003200002F001FA04F340EA0300294630BD21FA45
:1003300004F0294630BD94F0000F83F4801306BF0B
:1003400081F480110134013D4EE77FEA645C18BFFF
:100350007FEA655C29D094EA050F08BF90EA020F96
:1003600005D054EA000C04BF1946104630BD91EA8E
:10037000030F1EBF0021002030BD5FEA545C05D191
:100380004000494128BF41F0004130BD14F58004D0
:100390003CBF01F5801130BD01F0004545F0FE4144
:1003A00041F470014FF0000030BD7FEA645C1ABF79
:1003B000194610467FEA655C1CBF0B46024650EAB0
:1003C000013406BF52EA033591EA030F41F40021DC
:1003D00030BD00BF90F0000F04BF0021704730B562
:1003E0004FF4806404F132044FF000054FF0000137
:1003F00050E700BF90F0000F04BF0021704730B5F8
:100400004FF4806404F1320410F0004548BF4042CC
:100410004FF000013EE700BF42004FEAE2014FEA21
:1004200031014FEA02701FBF12F07F4393F07F4FFC
:1004300081F06051704732F07F4208BF704793F0FF
:100440007F4F04BF41F40021704730B54FF4607412
:1004500001F0004521F000411CE700BF50EA010215
:1004600008BF704730B54FF000050AE050EA0102BE
:1004700008BF704730B511F0004502D5404261EB2E
:1004800041014FF4806404F132045FEA915C3FF46F
:10049000D8AE4FF003025FEADC0C18BF03325FEA0C
:1004A000DC0C18BF033202EBDC02C2F1200300FABD
:1004B00003FC20FA02F001FA03FE40EA0E0021FAE2
:1004C00002F11444BDE600BF70B54FF0FF0C4CF4D0
:1004D000E06C1CEA11541DBF1CEA135594EA0C0F82
:1004E00095EA0C0F00F0DEF82C4481EA030621EABD
:1004F0004C5123EA4C5350EA013518BF52EA0335F8
:1005000041F4801143F4801338D0A0FB02CE4FF0A9
:100510000005E1FB02E506F00042E0FB03E54FF0D9
:100520000006E1FB03569CF0000F18BF4EF0010ED1
:10053000A4F1FF04B6F5007F64F5407404D25FEACD
:100540004E0E6D4146EB060642EAC62141EA555180
:100550004FEAC52040EA5E504FEACE2EB4F1FD0CC2
:1005600088BFBCF5E06F1ED8BEF1004F08BF5FEA40
:10057000500E50F1000041EB045170BD06F00046F2
:1005800046EA010140EA020081EA0301B4EB5C049F
:10059000C2BFD4EB0C0541EA045170BD41F4801197
:1005A0004FF0000E013C00F3AB8014F1360FDEBFBC
:1005B000002001F0004170BDC4F10004203C35DA98
:1005C0000C341BDC04F11404C4F1200500FA05F31B
:1005D00020FA04F001FA05F240EA020001F00042BC
:1005E00021F0004110EBD37021FA04F642EB060132
:1005F0005EEA430E08BF20EAD37070BDC4F10C045C
:10060000C4F1200500FA04F320FA05F001FA04F21F
:1006100040EA020001F0004110EBD37041F100010B
:100620005EEA430E08BF20EAD37070BDC4F1200516
:1006300000FA05F24EEA020E20FA04F301FA05F27E
:1006400043EA020321FA04F001F0004121FA04F226
:1006500020EA020000EBD3705EEA430E08BF20EAF6
:10066000D37070BD94F0000F0FD101F00046400030
:1006700041EB010111F4801F08BF013CF7D041EAB2
:10068000060195F0000F18BF704703F000465200B6
:1006900043EB030313F4801F08BF013DF7D043EA87
:1006A0000603704794EA0C0F0CEA135518BF95EA3D
:1006B0000C0F0CD050EA410618BF52EA4306D1D1C4
:1006C00081EA030101F000414FF0000070BD50EAE3
:1006D000410606BF1046194652EA430619D094EA6D
:1006E0000C0F02D150EA013613D195EA0C0F05D157
:1006F00052EA03361CBF104619460AD181EA0301AB
:1007000001F0004141F0FE4141F470014FF0000062
:1007100070BD41F0FE4141F4780170BD70B54FF0FD
:10072000FF0C4CF4E06C1CEA11541DBF1CEA13557D
:1007300094EA0C0F95EA0C0F00F0A7F8A4EB05045F
:1007400081EA030E52EA03354FEA013100F0888056
:100750004FEA03334FF0805545EA131343EA12631F
:100760004FEA022245EA111545EA10654FEA0026D4
:100770000EF000419D4208BF964244F1FD0404F58D
:10078000407402D25B084FEA3202B61A65EB0305E9
:100790005B084FEA32024FF480104FF4002CB6EBA6
:1007A000020E75EB030E22BFB61A754640EA0C0026
:1007B0005B084FEA3202B6EB020E75EB030E22BF66
:1007C000B61A754640EA5C005B084FEA3202B6EBA7
:1007D000020E75EB030E22BFB61A754640EA9C0066
:1007E0005B084FEA3202B6EB020E75EB030E22BF36
:1007F000B61A754640EADC0055EA060E18D04FEAF4
:10080000051545EA16754FEA06164FEAC30343EA93
:1008100052734FEAC2025FEA1C1CC0D111F4801F60
:100820000BD141EA00014FF000004FF0004CB6E759
:1008300011F4801F04BF01430020B4F1FD0C88BFF8
:10084000BCF5E06F3FF6AFAEB5EB030C04BFB6EB03
:10085000020C5FEA500C50F1000041EB045170BDF6
:100860000EF0004E4EEA113114EB5C04C2BFD4EB23
:100870000C0541EA045170BD41F480114FF0000EA7
:10088000013C90E645EA060E8DE60CEA135594EA23
:100890000C0F08BF95EA0C0F3FF43BAF94EA0C0F26
:1008A0000AD150EA01347FF434AF95EA0C0F7FF49B
:1008B00025AF104619462CE795EA0C0F06D152EAEF
:1008C00003353FF4FDAE1046194622E750EA4106D3
:1008D00018BF52EA43067FF4C5AE50EA41047FF4E4
:1008E0000DAF52EA43057FF4EBAE12E74FEA410247
:1008F000B2F1E04324BFB3F5001CDCF1FE5C0DD97E
:1009000001F0004C4FEAC0024CEA5070B2F1004FC7
:1009100040EB830008BF20F00100704711F0804FCA
:1009200021D113F13872BCBF01F00040704741F48F
:1009300080114FEA5252C2F11802C2F1200C10FA93
:100940000CF320FA02F018BF40F001004FEAC12377
:100950004FEAD32303FA0CFC40EA0C0023FA02F31B
:100960004FEA4303CCE77FEA625307D150EA0133F1
:100970001EBF4FF0FE4040F44000704701F00040C1
:1009800040F0FE4040F40000704700BF80F000409F
:1009900002E000BF81F0004142001FBF5FEA410357
:1009A00092EA030F7FEA226C7FEA236C6AD04FEA57
:1009B0001262D2EB1363C1BFD2184140484041409C
:1009C000B8BF5B42192B88BF704710F0004F40F44E
:1009D000000020F07F4018BF404211F0004F41F46A
:1009E000000121F07F4118BF494292EA030F3FD036
:1009F000A2F1010241FA03FC10EB0C00C3F1200349
:100A000001FA03F100F0004302D5494260EB4000D7
:100A1000B0F5000F13D3B0F1807F06D340084FEA42
:100A2000310102F10102FE2A51D2B1F1004F40EB37
:100A3000C25008BF20F0010040EA0300704749009F
:100A400040EB0000013A28BFB0F5000FEDD2B0FA3C
:100A500080FCACF1080CB2EB0C0200FA0CF0AABF5F
:100A600000EBC25052421843BCBFD04018437047FD
:100A700092F0000F81F4000106BF80F40000013203
:100A8000013BB5E74FEA41037FEA226C18BF7FEADA
:100A9000236C21D092EA030F04D092F0000F08BF1C
:100AA0000846704790EA010F1CBF0020704712F003
:100AB0007F4F04D1400028BF40F00040704712F142
:100AC00000723CBF00F50000704700F0004343F0A7
:100AD000FE4040F4000070477FEA226216BF0846DD
:100AE0007FEA23630146420206BF5FEA412390EAA0
:100AF000010F40F4800070474FF0000304E000BF96
:100B000010F0004348BF40425FEA000C08BF704746
:100B100043F0964301464FF000001CE050EA01020A
:100B200008BF70474FF000030AE000BF50EA01021F
:100B300008BF704711F0004302D5404261EB41010C
:100B40005FEA010C02BF84460146002043F0B64331
:100B500008BFA3F18053A3F50003BCFA8CF2083A56
:100B6000A3EBC25310DB01FA02FC634400FA02FC5F
:100B7000C2F12002BCF1004F20FA02F243EB020066
:100B800008BF20F00100704702F1200201FA02FCC8
:100B9000C2F1200250EA4C0021FA02F243EB0200BB
:100BA00008BF20EADC7070474FF0FF0C1CEAD052FF
:100BB0001EBF1CEAD15392EA0C0F93EA0C0F6FD0C0
:100BC0001A4480EA010C400218BF5FEA41211ED09E
:100BD0004FF0006343EA501043EA5111A0FB01318A
:100BE0000CF00040B1F5000F3EBF490041EAD3715F
:100BF0005B0040EA010062F17F02FD2A1DD8B3F1DB
:100C0000004F40EBC25008BF20F00100704790F049
:100C1000000F0CF0004C08BF49024CEA502040EA9B
:100C200051207F3AC2BFD2F1FF0340EAC250704761
:100C300040F400004FF00003013A5DDC12F1190F9F
:100C4000DCBF00F000407047C2F10002410021FA11
:100C500002F1C2F1200200FA02FC5FEA310040F129
:100C6000000053EA4C0308BF20EADC70704792F0A2
:100C7000000F00F0004C02BF400010F4000F013ADA
:100C8000F9D040EA0C0093F0000F01F0004C02BFD5
:100C9000490011F4000F013BF9D041EA0C018FE744
:100CA0000CEAD15392EA0C0F18BF93EA0C0F0AD04A
:100CB00030F0004C18BF31F0004CD8D180EA010070
:100CC00000F00040704790F0000F17BF90F0004F09
:100CD000084691F0000F91F0004F14D092EA0C0FEB
:100CE00001D142020FD193EA0C0F03D14B0218BF7E
:100CF000084608D180EA010000F0004040F0FE40C4
:100D000040F40000704740F0FE4040F4400070475F
:100D10004FF0FF0C1CEAD0521EBF1CEAD15392EADE
:100D20000C0F93EA0C0F69D0A2EB030280EA010CCE
:100D300049024FEA402037D04FF0805343EA111167
:100D400043EA10130CF000408B4238BF5B0042F1C5
:100D50007D024FF4000C8B4224BF5B1A40EA0C006A
:100D6000B3EB510F24BFA3EB510340EA5C00B3EB9C
:100D7000910F24BFA3EB910340EA9C00B3EBD10F8A
:100D800024BFA3EBD10340EADC001B0118BF5FEADC
:100D90001C1CE0D1FD2A3FF650AF8B4240EBC25005
:100DA00008BF20F0010070470CF0004C4CEA5020C6
:100DB0007F32C2BFD2F1FF0340EAC250704740F415
:100DC00000004FF00003013A37E792F0000F00F007
:100DD000004C02BF400010F4000F013AF9D040EA85
:100DE0000C0093F0000F01F0004C02BF490011F419
:100DF000000F013BF9D041EA0C0195E70CEAD15311
:100E000092EA0C0F08D142027FF47DAF93EA0C0FF7
:100E10007FF470AF084676E793EA0C0F04D14B02DB
:100E20003FF44CAF08466EE730F0004C18BF31F08D
:100E3000004CCAD130F000427FF45CAF31F0004387
:100E40007FF43CAF5FE700BF034613F8012B002A95
:100E5000FBD1181A0138704780B400AF00BFBD46FF
:100E600080BC704780B584B000AF78607B68002B91
:100E700001D101232BE17B6893F83D30DBB2002BDD
:100E800006D17B68002283F83C20786805F056FE86
:100E90007B68242283F83D207B681B681A687B6886
:100EA0001B6822F001021A607B681B681A687B6865
:100EB0001B6842F400421A607B681B681A687B68F2
:100EC0001B6822F400421A6001F082FCF8607B6823
:100ED0005B68814A934207D8FB68804A934294BF7B
:100EE00001230023DBB206E0FB687D4A934294BFF6
:100EF00001230023DBB2002B01D00123E7E0FB68D4
:100F0000784AA2FB03239B0CBB607B681B685B6871
:100F100023F03F017B681B68BA680A435A607B680C
:100F20001B681B6A23F03F017B685B686A4A934237
:100F300002D8BB68013309E0BB684FF4967202FB2C
:100F400003F3694AA2FB03239B0901337A68126801
:100F50000B4313627B681B68DB6923F44F4222F06A
:100F6000FF027B685B685C498B4219D8FB68591E9D
:100F70007B685B685B00B1FBF3F3591C40F6FC73C4
:100F80000B40002B0AD0FB68591E7B685B685B0036
:100F9000B1FBF3F30133C3F30B0351E004234FE040
:100FA0007B689B68002B11D1FB68581E7B685968D1
:100FB0000B465B000B44B0FBF3F30133C3F30B03AD
:100FC000002B0CBF01230023DBB212E0FB68581E8C
:100FD0007B6859680B469B000B4499000B44B0FB9F
:100FE000F3F30133C3F30B03002B0CBF01230023E6
:100FF000DBB2002B01D0012322E07B689B68002B31
:101000000ED1FB68581E7B6859680B465B000B4489
:10101000B0FBF3F30133C3F30B0343F400430FE0DE
:10102000FB68581E7B6859680B469B000B4499006F
:101030000B44B0FBF3F30133C3F30B0343F440431E
:10104000796809681343CB617B681B681B6823F0D0
:10105000C0017B68DA697B681B6A1A437B681B687E
:101060000A431A607B681B689B6823F4034323F0E0
:10107000FF037A6811697A68D26811437A68126846
:101080000B4393607B681B68DB6823F0FF017B6880
:101090005A697B689B691A437B681B680A43DA605C
:1010A0007B681B681A687B681B6842F001021A6043
:1010B0007B6800221A647B68202283F83D207B68CD
:1010C00000221A637B68002283F83E200023184622
:1010D0001037BD4680BD00BFA08601007F841E0082
:1010E000FF083D0083DE1B43D34D621080B588B0FE
:1010F00002AFF860084611461A4603467B810B464C
:101100003B811346FB8000F06BFF7861FB6893F82E
:101110003D30DBB2202B40F0D9807B69009319234E
:1011200001226D49F86800F0CDFC0346002B01D088
:101130000223CCE0FB6893F83C30012B01D1022361
:10114000C5E0FB68012283F83C20FB681B681B6834
:1011500003F00103012B07D0FB681B681A68FB68CA
:101160001B6842F001021A60FB681B681A68FB6882
:101170001B6822F400621A60FB68212283F83D207C
:10118000FB68402283F83E20FB6800221A64FB685B
:101190003A6A5A62FB68BA8C5A85FB685B8D9AB2D0
:1011A000FB681A85FB684D4ADA62F8883A897989C2
:1011B0007B690193BB6A00930346F86800F004FB67
:1011C0000346002B52D0012381E07A69B96AF8689E
:1011D00000F092FD0346002B0DD0FB681B6C042B26
:1011E00007D1FB681B681A68FB681B6842F4007231
:1011F0001A6001236BE0FB685B6A1A78FB681B6866
:101200001A61FB685B6A5A1CFB685A62FB681B8D9B
:10121000013B9AB2FB681A85FB685B8D9BB2013B70
:101220009AB2FB685A85FB681B685B6903F004038C
:10123000042B1BD1FB681B8D002B17D0FB685B6A4E
:101240001A78FB681B681A61FB685B6A5A1CFB68AA
:101250005A62FB681B8D013B9AB2FB681A85FB68DA
:101260005B8D9BB2013B9AB2FB685A85FB681B8D74
:10127000002BAAD17A69B96AF86800F085FD0346A7
:10128000002B0DD0FB681B6C042B07D1FB681B687F
:101290001A68FB681B6842F400721A60012316E0AA
:1012A000FB681B681A68FB681B6842F400721A60CE
:1012B000FB68202283F83D20FB68002283F83E2053
:1012C000FB68002283F83C20002300E0022318463C
:1012D0001837BD4680BD00BF020010000000FFFFB0
:1012E00080B58CB002AFF860084611461A46034636
:1012F0007B810B463B811346FB8000233B6200F061
:101300006FFE7862FB6893F83D30DBB2202B40F033
:1013100050827B6A0093192301228249F86800F009
:10132000D1FB0346002B01D0022343E2FB6893F874
:101330003C30012B01D102233CE2FB68012283F8FF
:101340003C20FB681B681B6803F00103012B07D0DE
:10135000FB681B681A68FB681B6842F001021A6090
:10136000FB681B681A68FB681B6822F400621A603D
:10137000FB68222283F83D20FB68402283F83E2050
:10138000FB6800221A64FB683A6B5A62FB68BA8EEB
:101390005A85FB685B8D9AB2FB681A85FB68624AC6
:1013A000DA62F8883A8979897B6A0193BB6B00938A
:1013B0000346F86800F09EFA0346002B01D0012393
:1013C000F8E1FB681B8D002B13D10023FB61FB6848
:1013D0001B685B69FB61FB681B689B69FB61FB69C0
:1013E000FB681B681A68FB681B6842F400721A608D
:1013F000CCE1FB681B8D012B1ED1FB681B681A68B2
:10140000FB681B6822F480621A6072B600BF00237A
:10141000BB61FB681B685B69BB61FB681B689B6900
:10142000BB61BB69FB681B681A68FB681B6842F4F8
:1014300000721A6062B635E0FB681B8D022B1ED16C
:10144000FB681B681A68FB681B6842F400621A603C
:1014500072B600BF00237B61FB681B685B697B6120
:10146000FB681B689B697B617B69FB681B681A686A
:10147000FB681B6822F480621A6062B612E0FB68A7
:101480001B681A68FB681B6842F480621A600023BC
:101490003B61FB681B685B693B61FB681B689B6980
:1014A0003B613B6972E1FB681B8D032B00F21F81DE
:1014B000FB681B8D012B23D17A6AB96BF86800F0A9
:1014C000ABFC0346002B01D0012373E1FB681B68D2
:1014D0001A69FB685B6AD2B21A70FB685B6A5A1CB5
:1014E000FB685A62FB681B8D013B9AB2FB681A8548
:1014F000FB685B8D9BB2013B9AB2FB685A8545E164
:10150000FB681B8D022B52D17B6A0093BB6B0022C0
:101510000649F86800F0D6FA0346002B08D00123EC
:1015200048E100BF020010000000FFFF04000100BE
:1015300072B600BFFB681B681A68FB681B6842F440
:1015400000721A60FB681B681A69FB685B6AD2B29A
:101550001A70FB685B6A5A1CFB685A62FB681B8D39
:10156000013B9AB2FB681A85FB685B8D9BB2013B1D
:101570009AB2FB685A8562B600BFFB681B681A699D
:10158000FB685B6AD2B21A70FB685B6A5A1CFB6824
:101590005A62FB681B8D013B9AB2FB681A85FB6897
:1015A0005B8D9BB2013B9AB2FB685A85EEE07B6A89
:1015B0000093BB6B00228149F86800F083FA034670
:1015C000002B01D00123F5E0FB681B681A68FB685B
:1015D0001B6822F480621A6072B600BFFB681B6849
:1015E0001A69FB685B6AD2B21A70FB685B6A5A1CA4
:1015F000FB685A62FB681B8D013B9AB2FB681A8537
:10160000FB685B8D9BB2013B9AB2FB685A856C4BC1
:101610001B68DB086B4AA2FB03231A0A13469B00D4
:101620001344DA00D31A3B623B6A013B3B623B6ADC
:10163000002B18D1FB6800221A63FB68202283F874
:101640003D20FB68002283F83E20FB681B6C43F0C2
:101650002002FB681A6462B600BFFB68002283F8B0
:101660003C200123A6E0FB681B685B6903F00403D0
:10167000042BD9D1FB681B681A68FB681B6842F40D
:1016800000721A60FB681B681A69FB685B6AD2B259
:101690001A70FB685B6A5A1CFB685A62FB681B8DF8
:1016A000013B9AB2FB681A85FB685B8D9BB2013BDC
:1016B0009AB2FB685A8562B600BFFB681B681A695C
:1016C000FB685B6AD2B21A70FB685B6A5A1CFB68E3
:1016D0005A62FB681B8D013B9AB2FB681A85FB6856
:1016E0005B8D9BB2013B9AB2FB685A854EE07A6AE9
:1016F000B96BF86800F090FB0346002B01D0012382
:1017000058E0FB681B681A69FB685B6AD2B21A7002
:10171000FB685B6A5A1CFB685A62FB681B8D013BC5
:101720009AB2FB681A85FB685B8D9BB2013B9AB24B
:10173000FB685A85FB681B685B6903F00403042B94
:1017400024D1FB681B8D032B07D1FB681B681A682B
:10175000FB681B6822F480621A60FB681B681A69C8
:10176000FB685B6AD2B21A70FB685B6A5A1CFB6842
:101770005A62FB681B8D013B9AB2FB681A85FB68B5
:101780005B8D9BB2013B9AB2FB685A85FB681B8D4F
:10179000002B7FF488AEFB68202283F83D20FB6895
:1017A000002283F83E20FB68002283F83C200023BF
:1017B00000E0022318462837BD4680BD0400010022
:1017C0000000002089B5F81480B588B002AFF86039
:1017D000084611461A4603467B810B463B81134659
:1017E000FB80FB681B681A68FB681B6842F4807208
:1017F0001A607B6A00933B6A00224FF00111F8687F
:1018000000F060F90346002B0DD0FB681B681B68D5
:1018100003F48073B3F5807F03D1FB684FF400724B
:101820001A6403235FE07B89DBB21A46FB681B68FE
:1018300002F0FE021A617B6A3A6A2D49F86800F0EC
:10184000BBF90346002B01D001234CE000237B6150
:10185000FB681B685B697B61FB681B689B697B613C
:101860007B697A6A396AF86800F046FA0346002B09
:101870000DD0FB681B6C042B07D1FB681B681A6832
:10188000FB681B6842F400721A6001232BE0FB889E
:10189000012B05D13B89DAB2FB681B681A6121E094
:1018A0003B891B0A9BB2DAB2FB681B681A617A6A31
:1018B000396AF86800F020FA0346002B0DD0FB6867
:1018C0001B6C042B07D1FB681B681A68FB681B683C
:1018D00042F400721A60012305E03B89DAB2FB682A
:1018E0001B681A61002318461837BD4680BD00BF2B
:1018F0000200010080B588B002AFF86008461146CA
:101900001A4603467B810B463B811346FB80FB68EE
:101910001B681A68FB681B6842F480621A60FB68E7
:101920001B681A68FB681B6842F480721A607B6A45
:1019300000933B6A00224FF00111F86800F0C2F8F2
:101940000346002B0DD0FB681B681B6803F48073F3
:10195000B3F5807F03D1FB684FF400721A64032350
:10196000AAE07B89DBB21A46FB681B6802F0FE0224
:101970001A617B6A3A6A5249F86800F01DF9034619
:10198000002B01D0012397E000237B61FB681B68DB
:101990005B697B61FB681B689B697B617B697A6A19
:1019A000396AF86800F0A8F90346002B0DD0FB68EF
:1019B0001B6C042B07D1FB681B681A68FB681B684B
:1019C00042F400721A60012376E0FB88012B05D1F6
:1019D0003B89DAB2FB681B681A6121E03B891B0A6C
:1019E0009BB2DAB2FB681B681A617A6A396AF868D6
:1019F00000F082F90346002B0DD0FB681B6C042B12
:101A000007D1FB681B681A68FB681B6842F4007208
:101A10001A60012350E03B89DAB2FB681B681A6147
:101A20007A6A396AF86800F067F90346002B0DD02E
:101A3000FB681B6C042B07D1FB681B681A68FB68EA
:101A40001B6842F400721A60012335E0FB681B68D2
:101A50001A68FB681B6842F480721A607B6A009304
:101A60003B6A00224FF00111F86800F02BF80346A2
:101A7000002B0DD0FB681B681B6803F48073B3F563
:101A8000807F03D1FB684FF400721A64032313E0D4
:101A90007B89DBB243F00103DAB2FB681B681A6191
:101AA0007B6A3A6A0649F86800F086F80346002B1C
:101AB00001D0012300E0002318461837BD4680BD41
:101AC0000200010080B584B000AFF860B9603B60EF
:101AD0001346FB7148E03B68B3F1FF3F44D000F090
:101AE0007FFA0246BB69D31A3A689A4202D33B682E
:101AF000002B39D1BB681B0CDBB2012B0DD1FB686D
:101B00001B685B69DA43BB6813409BB2002B0CBFB8
:101B100001230023DBB21A460CE0FB681B689B69BB
:101B2000DA43BB6813409BB2002B0CBF0123002398
:101B3000DBB21A46FB799A4216D1FB6800221A637F
:101B4000FB68202283F83D20FB68002283F83E20BA
:101B5000FB681B6C43F02002FB681A64FB680022E0
:101B600083F83C20012323E0BB681B0CDBB2012B74
:101B70000DD1FB681B685B69DA43BB6813409BB2FD
:101B8000002B0CBF01230023DBB21A460CE0FB68DC
:101B90001B689B69DA43BB6813409BB2002B0CBFE8
:101BA00001230023DBB21A46FB799A4293D000232B
:101BB00018461037BD4680BD80B584B000AFF860D0
:101BC000B9607A603B6071E0FB681B685B6903F495
:101BD0008063B3F5806F23D1FB681B681A68FB68CC
:101BE0001B6842F400721A60FB681B686FF4806225
:101BF0005A61FB6800221A63FB68202283F83D20AB
:101C0000FB68002283F83E20FB681B6C43F0040253
:101C1000FB681A64FB68002283F83C20012367E01C
:101C20007B68B3F1FF3F41D000F0DAF902463B6830
:101C3000D31A7A689A4202D37B68002B36D1BB68EC
:101C40001B0CDBB2012B0CD1FB681B685B69DA4310
:101C5000BB6813409BB2002B14BF01230023DBB2EF
:101C60000BE0FB681B689B69DA43BB6813409BB2BF
:101C7000002B14BF01230023DBB2002B16D0FB681E
:101C800000221A63FB68202283F83D20FB680022B3
:101C900083F83E20FB681B6C43F02002FB681A644B
:101CA000FB68002283F83C20012321E0BB681B0C69
:101CB000DBB2012B0CD1FB681B685B69DA43BB68A4
:101CC00013409BB2002B14BF01230023DBB20BE0B7
:101CD000FB681B689B69DA43BB6813409BB2002B0F
:101CE00014BF01230023DBB2002B7FF46DAF002370
:101CF00018461037BD4680BD80B584B000AFF8608F
:101D0000B9607A6034E0F86800F0E3F80346002B2D
:101D100001D0012334E0BB68B3F1FF3F28D000F0CD
:101D20005FF902467B68D31ABA689A4202D3BB684D
:101D3000002B1DD1FB681B685B6903F08003802BBF
:101D400016D0FB6800221A63FB68202283F83D202E
:101D5000FB68002283F83E20FB681B6C43F02002E6
:101D6000FB681A64FB68002283F83C20012307E02B
:101D7000FB681B685B6903F08003802BC3D10023E1
:101D800018461037BD4680BD80B584B000AFF860FE
:101D9000B9607A6034E0F86800F09BF80346002BE5
:101DA00001D0012334E0BB68B3F1FF3F28D000F03D
:101DB00017F902467B68D31ABA689A4202D3BB6805
:101DC000002B1DD1FB681B685B6903F00403042B27
:101DD00016D0FB6800221A63FB68202283F83D209E
:101DE000FB68002283F83E20FB681B6C43F0200256
:101DF000FB681A64FB68002283F83C20012307E09B
:101E0000FB681B685B6903F00403042BC3D1002348
:101E100018461037BD4680BD80B584B000AFF8606D
:101E2000B9607A6049E0FB681B685B6903F01003E6
:101E3000102B19D1FB681B686FF010025A61FB6808
:101E400000221A63FB68202283F83D20FB680022F1
:101E500083F83E20FB681A6CFB681A64FB6800225A
:101E600083F83C20012330E000F0BAF802467B689A
:101E7000D31ABA689A4202D3BB68002B1DD1FB6803
:101E80001B685B6903F04003402B16D0FB680022FF
:101E90001A63FB68202283F83D20FB68002283F848
:101EA0003E20FB681B6C43F02002FB681A64FB6851
:101EB000002283F83C20012307E0FB681B685B6974
:101EC00003F04003402BAED1002318461037BD4627
:101ED00080BD80B483B000AF78607B681B685B69AD
:101EE00003F48063B3F5806F1BD17B681B686FF4CC
:101EF00080625A617B6800221A637B68202283F823
:101F00003D207B68002283F83E207B681B6C43F0F9
:101F100004027B681A647B68002283F83C2001235A
:101F200000E0002318460C37BD4680BC7047000017
:101F300080B500AF084B1B68074A43F010031360DD
:101F4000032001F003FB0F2000F008F805F088F8EB
:101F50000023184680BD00BF0020024080B582B03B
:101F600000AF7860124B1A68124B1B7819464FF479
:101F70007A73B3FBF1F3B2FBF3F3184601F029FBDC
:101F80000346002B01D001230EE07B680F2B0AD8FB
:101F9000002279684FF0FF3001F0E3FA064A7B68CF
:101FA0001360002300E0012318460837BD4680BDBA
:101FB00000000020080000200400002080B400AFD2
:101FC000054B1B781A46054B1B681344034A1360E4
:101FD00000BFBD4680BC704708000020A000002064
:101FE00080B400AF024B1B681846BD4680BC7047EA
:101FF000A000002080B584B000AF7860FFF7F0FF4C
:10200000B8607B68FB60FB68B3F1FF3F05D00A4B0B
:102010001B781A46FB681344FB6000BFFFF7E0FF24
:102020000246BB68D31AFA689A42F7D800BF00BFCD
:102030001037BD4680BD00BF0800002080B586B0C7
:1020400000AF78607B68002B01D1012372E27B68CE
:102050001B6803F00103002B00F08780924B5B6844
:1020600003F00C03042B0CD08F4B5B6803F00C03C4
:10207000082B12D18C4B5B6803F48033B3F5803F9F
:102080000BD1894B1B6803F40033002B6CD07B68A9
:102090005B68002B68D101234CE27B685B68B3F579
:1020A000803F06D1804B1B687F4A43F48033136026
:1020B0002EE07B685B68002B0CD17B4B1B687A4A57
:1020C00023F480331360784B1B68774A23F4802312
:1020D00013601DE07B685B68B3F5A02F0CD1724BD9
:1020E0001B68714A43F4802313606F4B1B686E4A70
:1020F00043F4803313600BE06B4B1B686A4A23F494
:1021000080331360684B1B68674A23F48023136095
:102110007B685B68002B13D0FFF762FF386108E033
:10212000FFF75EFF02463B69D31A642B01D90323F4
:1021300000E25D4B1B6803F40033002BF0D014E089
:10214000FFF74EFF386108E0FFF74AFF02463B69A0
:10215000D31A642B01D90323ECE1534B1B6803F41E
:102160000033002BF0D100E000BF7B681B6803F058
:102170000203002B63D04C4B5B6803F00C03002B75
:102180000BD0494B5B6803F00C03082B1CD1464B6A
:102190005B6803F48033002B16D1434B1B6803F0BC
:1021A0000203002B05D07B681B69012B01D00123A2
:1021B000C0E13D4B1B6823F0F8027B685B69DB00E4
:1021C000394913430B603AE07B681B69002B20D030
:1021D000364B01221A60FFF703FF386108E0FFF772
:1021E000FFFE02463B69D31A022B01D90323A1E16A
:1021F0002D4B1B6803F00203002BF0D02A4B1B6809
:1022000023F0F8027B685B69DB00274913430B600E
:1022100015E0264B00221A60FFF7E2FE386108E065
:10222000FFF7DEFE02463B69D31A022B01D90323D6
:1022300080E11D4B1B6803F00203002BF0D17B688B
:102240001B6803F00803002B3AD07B689B69002BC6
:1022500019D0174B01221A60FFF7C2FE386108E05F
:10226000FFF7BEFE02463B69D31A022B01D90323B6
:1022700060E10D4B5B6A03F00203002BF0D00120FC
:1022800000F0CEFA1CE00A4B00221A60FFF7A8FE0D
:1022900038610FE0FFF7A4FE02463B69D31A022B18
:1022A00008D9032346E100BF00100240000042426B
:1022B00080044242924B5B6A03F00203002BE9D197
:1022C0007B681B6803F00403002B00F0A68000234A
:1022D000FB758B4BDB6903F08053002B0DD1884BD2
:1022E000DB69874A43F08053D361854BDB6903F098
:1022F0008053BB60BB680123FB75824B1B6803F4F2
:102300008073002B18D17F4B1B687E4A43F4807387
:102310001360FFF765FE386108E0FFF761FE0246D3
:102320003B69D31A642B01D9032303E1754B1B6866
:1023300003F48073002BF0D07B68DB68012B06D19F
:102340006F4B1B6A6E4A43F0010313622DE07B68FA
:10235000DB68002B0CD16A4B1B6A694A23F001032E
:102360001362674B1B6A664A23F0040313621CE086
:102370007B68DB68052B0CD1614B1B6A604A43F01C
:10238000040313625E4B1B6A5D4A43F00103136250
:102390000BE05B4B1B6A5A4A23F001031362584B54
:1023A0001B6A574A23F0040313627B68DB68002B27
:1023B00015D0FFF715FE38610AE0FFF711FE02465F
:1023C0003B69D31A41F28832934201D90323B1E029
:1023D0004B4B1B6A03F00203002BEED014E0FFF717
:1023E000FFFD38610AE0FFF7FBFD02463B69D31AA7
:1023F00041F28832934201D903239BE0404B1B6A90
:1024000003F00203002BEED1FB7D012B05D13C4BE9
:10241000DB693B4A23F08053D3617B68DB69002B87
:1024200000F08780364B5B6803F00C03082B61D00B
:102430007B68DB69022B46D1334B00221A60FFF721
:10244000CFFD386108E0FFF7CBFD02463B69D31AA8
:10245000022B01D903236DE0294B1B6803F00073A5
:10246000002BF0D17B681B6AB3F5803F08D1244B69
:102470005B6823F400327B689B68214913434B60FF
:102480001F4B5B6823F474127B68196A7B685B6A74
:102490000B431B4913434B601B4B01221A60FFF790
:1024A0009FFD386108E0FFF79BFD02463B69D31AA8
:1024B000022B01D903233DE0114B1B6803F000738D
:1024C000002BF0D035E0104B00221A60FFF788FD9A
:1024D000386108E0FFF784FD02463B69D31A022BFE
:1024E00001D9032326E0064B1B6803F00073002B81
:1024F000F0D11EE07B68DB69012B07D1012319E0D5
:102500000010024000700040600042420B4B5B68CC
:10251000FB60FB6803F480327B681B6A9A4206D139
:10252000FB6803F470127B685B6A9A4201D0012356
:1025300000E0002318461837BD4680BD0010024059
:1025400080B584B000AF786039607B68002B01D122
:102550000123D0E06A4B1B6803F007033A689A42F4
:1025600010D9674B1B6823F0070265493B6813438A
:102570000B60634B1B6803F007033A689A4201D073
:102580000123B8E07B681B6803F00203002B20D016
:102590007B681B6803F00403002B05D0594B5B6874
:1025A000584A43F4E06353607B681B6803F00803F8
:1025B000002B05D0534B5B68524A43F46053536081
:1025C000504B5B6823F0F0027B689B684D491343D6
:1025D0004B607B681B6803F00103002B40D07B68D5
:1025E0005B68012B07D1474B1B6803F40033002BBA
:1025F00015D101237FE07B685B68022B07D1414B3B
:102600001B6803F00073002B09D1012373E03D4BDD
:102610001B6803F00203002B01D101236BE0394B4F
:102620005B6823F003027B685B68364913434B60A9
:10263000FFF7D6FCF8600AE0FFF7D2FC0246FB6821
:10264000D31A41F28832934201D9032353E02D4B30
:102650005B6803F00C027B685B689B009A42EBD1DD
:10266000274B1B6803F007033A689A4210D2244BA9
:102670001B6823F0070222493B6813430B60204B81
:102680001B6803F007033A689A4201D0012332E045
:102690007B681B6803F00403002B08D0194B5B68B0
:1026A00023F4E0627B68DB68164913434B607B6868
:1026B0001B6803F00803002B09D0124B5B6823F45E
:1026C00060527B681B69DB000E4913434B6000F0CE
:1026D00021F802460B4B5B681B0903F00F030A4904
:1026E000CB5C22FA03F3094A1360094B1B681846B6
:1026F000FFF734FC002318461037BD4680BD00BFED
:1027000000200240001002408CA3000800000020BE
:102710000400002080B487B000AF0023FB600023DA
:10272000BB6000237B6100237B6000233B611E4B69
:102730005B68FB60FB6803F00C03042B02D0082BE2
:1027400003D027E0194B3B6127E0FB689B0C03F0AB
:102750000F03174AD35C7B60FB6803F48033002BC4
:1027600010D0114B5B685B0C03F00103114AD35C82
:10277000BB607B680D4A03FB02F2BB68B2FBF3F35C
:102780007B6104E07B680C4A02FB03F37B617B699D
:102790003B6102E0054B3B6100BF3B6918461C37BB
:1027A000BD4680BC704700BF0010024000127A0096
:1027B000A4A30008B4A3000800093D0080B400AF42
:1027C000024B1B681846BD4680BC704700000020C5
:1027D00080B500AFFFF7F2FF0246054B5B681B0AAE
:1027E00003F007030349CB5C22FA03F3184680BDCC
:1027F000001002409CA3000880B500AFFFF7DEFF89
:102800000246054B5B68DB0A03F007030349CB5C18
:1028100022FA03F3184680BD001002409CA3000872
:1028200080B485B000AF78600A4B1B680A4AA2FBEF
:1028300003235B0A7A6802FB03F3FB6000BFFB68BB
:102840005A1EFA60002BF9D100BF00BF1437BD46F5
:1028500080BC704700000020D34D621080B48BB064
:1028600000AF7860396000237B6200233B6269E13E
:1028700001227B6A02FA03F3FB613B681B68FA6979
:102880001340BB61BA69FB699A4240F058813B68CA
:102890005B689A4A93425ED0984A934275D8984AA8
:1028A000934258D0964A93426FD8964A934252D058
:1028B000944A934269D8944A93424CD0924A9342A4
:1028C00063D8924A934246D0904A93425DD8122BE5
:1028D0002AD8122B59D801A252F823F05729000800
:1028E0003129000843290008852900088B290008A0
:1028F0008B2900088B2900088B2900088B290008E8
:102900008B2900088B2900088B2900088B290008D7
:102910008B2900088B2900088B2900088B290008C7
:10292000392900084D290008794A934213D02CE038
:102930003B68DB683B6229E03B68DB6804333B6251
:1029400024E03B68DB6808333B621FE03B68DB68E0
:102950000C333B621AE03B689B68002B02D10423D6
:102960003B6213E03B689B68012B05D108233B6267
:102970007B68FA691A6109E008233B627B68FA699F
:102980005A6103E000233B6200E000BFBB69FF2BFC
:1029900001D87B6801E07B6804337B61BB69FF2B56
:1029A00002D87B6A9B0002E07B6A083B9B003B618C
:1029B0007B691A680F213B6901FA03F3DB431A4074
:1029C000396A3B6901FA03F31A437B691A603B6871
:1029D0005B6803F08053002B00F0B1804D4B9B6986
:1029E0004C4A43F0010393614A4B9B6903F0010396
:1029F000BB60BB68484A7B6A9B08023352F82330AD
:102A0000FB607B6A03F003039B000F2202FA03F3CF
:102A1000DB43FA681340FB607B68404A934213D063
:102A20007B683F4A93420DD07B683E4A934207D071
:102A30007B683D4A934201D1032306E0042304E06E
:102A4000022302E0012300E000237A6A02F003027D
:102A500092009340FA681343FB602F497B6A9B08FE
:102A60000233FA6841F823203B685B6803F4801363
:102A7000002B06D02D4B9A682C49BB6913438B6001
:102A800006E02A4B9A68BB69DB43284913408B60F8
:102A90003B685B6803F40013002B06D0234BDA6815
:102AA0002249BB691343CB6006E0204BDA68BB695F
:102AB000DB431E491340CB603B685B6803F4003383
:102AC000002B06D0194B5A681849BB6913434B6059
:102AD00006E0164B5A68BB69DB43144913404B6050
:102AE0003B685B6803F48033002B21D00F4B1A68DE
:102AF0000E49BB6913430B6021E000BF0000321098
:102B000000003110000022100000211000001210FF
:102B100000001110001002400000014000080140B8
:102B2000000C01400010014000140140000401406D
:102B30000B4B1A68BB69DB43094913400B607B6A86
:102B400001337B623B681A687B6A22FA03F3002B2D
:102B50007FF48EAE00BF00BF2C37BD4680BC7047EF
:102B60000004014080B489B000AF78603960002370
:102B7000FB619AE00122FB6902FA03F33A68134011
:102B8000BB61BB69002B00F08D804E4AFB699B083E
:102B9000023352F823307B61FB6903F003039B008F
:102BA0000F2202FA03F37A6913407B617B68464A7D
:102BB000934213D07B68454A93420DD07B68444AC8
:102BC000934207D07B68434A934201D1032306E036
:102BD000042304E0022302E0012300E00023FA6959
:102BE00002F00302920093407A699A4232D13A4B42
:102BF0001A68BB69DB43384913400B60364B5A688F
:102C0000BB69DB43344913404B60334BDA68BB6923
:102C1000DB4331491340CB602F4B9A68BB69DB43E0
:102C20002D4913408B60FB6903F003039B000F22C7
:102C300002FA03F37B61234AFB699B08023352F8D3
:102C400023107B69DA431F48FB699B080A40023363
:102C500040F82320BB69FF2B01D87B6801E07B682B
:102C600004333B61BB69FF2B02D8FB699B0002E088
:102C7000FB69083B9B00FB603B691A680F21FB68FE
:102C800001FA03F3DB431A400421FB6801FA03F362
:102C90001A433B691A607B68DA68BB69DB431A40F8
:102CA0007B68DA60FB690133FB613A68FB6922FAF1
:102CB00003F3002B7FF45EAF00BF00BF2437BD4697
:102CC00080BC70470000014000080140000C01403A
:102CD00000100140001401400004014080B483B0A2
:102CE00000AF78600B467B8013467B707B78002BAF
:102CF00003D07A887B681A6103E07B881A047B68BA
:102D00001A6100BF0C37BD4680BC704780B485B0E7
:102D100000AF78600B467B807B68DB68FB607A885D
:102D2000FB6813401A04FB68D9437B880B401A43A5
:102D30007B681A6100BF1437BD4680BC7047000035
:102D400080B582B000AF0346FB80084B5A69FB8810
:102D50001340002B06D0054AFB885361FB881846B8
:102D600004F033F900BF0837BD4680BD00040140C0
:102D700080B485B000AF78600023FB607B68002BD7
:102D800001D1012343E07B681B681A46224B1344A0
:102D9000224AA2FB03231B099A007B681A647B6802
:102DA0001F4ADA637B68022283F821207B681B6854
:102DB0001B68FB60FB6823F47F5323F03003FB6048
:102DC0007B685A687B689B681A437B68DB681A4398
:102DD0007B681B691A437B685B691A437B689B6944
:102DE0001A437B68DB691343FA681343FB607B6813
:102DF0001B68FA681A607B6800229A637B6801226C
:102E000083F821207B68002283F8202000231846C5
:102E10001437BD4680BC7047F8FFFDBFCDCCCCCC8D
:102E20000000024080B483B000AF78607B68002B64
:102E300001D1012346E07B681B681A687B681B6828
:102E400022F001021A607B681B6800221A607B680E
:102E50001B6800225A607B681B6800229A607B68AE
:102E60001B680022DA607B681B681A46184B134403
:102E7000184AA2FB03231B099A007B681A647B682B
:102E8000154ADA637B681A6C7B68DB6B012101FAF7
:102E900002F25A607B6800229A627B680022DA6242
:102EA0007B6800221A637B6800225A637B680022D9
:102EB0009A637B68002283F821207B68002283F8D4
:102EC0002020002318460C37BD4680BC704700BF49
:102ED000F8FFFDBFCDCCCCCC0000024080B586B061
:102EE00000AFF860B9607A603B600023FB75FB6857
:102EF00093F82030012B01D102234BE0FB68012223
:102F000083F82020FB6893F82130DBB2012B3AD103
:102F1000FB68022283F82120FB6800229A63FB6889
:102F20001B681A68FB681B6822F001021A603B6884
:102F30007A68B968F86800F0EBF9FB68DB6A002B87
:102F400008D0FB681B681A68FB681B6842F00E0219
:102F50001A600FE0FB681B681A68FB681B6822F0A8
:102F600004021A60FB681B681A68FB681B6842F061
:102F70000A021A60FB681B681A68FB681B6842F04B
:102F800001021A6005E0FB68002283F8202002237A
:102F9000FB75FB7D18461837BD4680BD80B485B0F3
:102FA00000AF78600023FB737B6893F82130DBB2BD
:102FB000022B08D07B6804229A637B68002283F886
:102FC0002020012320E07B681B681A687B681B684F
:102FD00022F00E021A607B681B681A687B681B6807
:102FE00022F001021A607B681A6C7B68DB6B01219E
:102FF00001FA02F25A607B68012283F821207B6883
:10300000002283F82020FB7B18461437BD4680BC85
:103010007047000080B584B000AF78600023FB7378
:103020007B6893F82130DBB2022B05D07B68042249
:103030009A630123FB7351E07B681B681A687B6805
:103040001B6822F00E021A607B681B681A687B6896
:103050001B6822F001021A607B681B68224A9342B7
:1030600029D07B681B68214A934222D07B681B6869
:103070001F4A93421AD07B681B681E4A934212D0A3
:103080007B681B681C4A93420AD07B681B681B4AFA
:10309000934202D14FF480130EE04FF080730BE0A7
:1030A0004FF4803308E04FF4805305E04FF4807311
:1030B00002E0102300E00123114A53607B680122E3
:1030C00083F821207B68002283F820207B685B6BDB
:1030D000002B03D07B685B6B78689847FB7B1846B6
:1030E0001037BD4680BD00BF080002401C000240F2
:1030F0003000024044000240580002406C00024090
:103100000000024080B584B000AF78607B68DB6B64
:103110001B68FB607B681B681B68BB607B681B6C63
:1031200004229A40FB681340002B4FD0BB6803F089
:103130000403002B4AD07B681B681B6803F0200344
:10314000002B07D17B681B681A687B681B6822F01C
:1031500004021A607B681B68664A934229D07B6828
:103160001B68654A934222D07B681B68634A93427E
:103170001AD07B681B68624A934212D07B681B6836
:10318000604A93420AD07B681B685F4A934202D12F
:103190004FF480030EE04FF080630BE04FF4802388
:1031A00008E04FF4804305E04FF4806302E04023E1
:1031B00000E00423554A53607B68DB6A002B00F073
:1031C00094807B68DB6A786898478EE07B681B6C2C
:1031D00002229A40FB681340002B56D0BB6803F0D4
:1031E0000203002B51D07B681B681B6803F020038F
:1031F000002B0BD17B681B681A687B681B6822F068
:103200000A021A607B68012283F821207B681B6810
:10321000384A934229D07B681B68374A934222D0B0
:103220007B681B68354A93421AD07B681B68344A16
:10323000934212D07B681B68324A93420AD07B6863
:103240001B68314A934202D14FF400130EE04FF055
:1032500000730BE04FF4003308E04FF4005305E037
:103260004FF4007302E0202300E00223274A53605A
:103270007B68002283F820207B689B6A002B34D077
:103280007B689B6A786898472FE07B681B6C0822F4
:103290009A40FB681340002B28D0BB6803F008035A
:1032A000002B23D07B681B681A687B681B6822F0A0
:1032B0000E021A607B681A6C7B68DB6B012101FAD5
:1032C00002F25A607B6801229A637B68012283F8CC
:1032D00021207B68002283F820207B681B6B002B59
:1032E00004D07B681B6B7868984700BF00BF10371D
:1032F000BD4680BD080002401C0002403000024074
:1033000044000240580002406C00024000000240AD
:1033100080B485B000AFF860B9607A603B60FB684C
:103320001A6CFB68DB6B012101FA02F25A60FB6840
:103330001B683A685A60FB685B68102B08D1FB6811
:103340001B687A689A60FB681B68BA68DA6007E0F5
:10335000FB681B68BA689A60FB681B687A68DA6069
:1033600000BF1437BD4680BC7047000080B485B0F4
:1033700000AF78607B6803F00703FB600C4BDB68F1
:10338000BB60BA684FF6FF031340BB60FB681A02CC
:10339000BB68134343F0BF6343F40033BB60044A8C
:1033A000BB68D36000BF1437BD4680BC704700BF08
:1033B00000ED00E080B400AF044BDB681B0A03F0B3
:1033C00007031846BD4680BC704700BF00ED00E013
:1033D00080B483B000AF0346FB7197F90730002B30
:1033E0000BDBFB7903F01F02064997F907305B09F5
:1033F000012000FA02F241F8232000BF0C37BD463D
:1034000080BC704700E100E080B483B000AF0346A9
:10341000FB7197F90730002B12DBFB7903F01F02D9
:103420000A4997F907305B09012000FA02F22033BC
:1034300041F82320BFF34F8F00BFBFF36F8F00BF52
:1034400000BF0C37BD4680BC704700BF00E100E004
:1034500080B483B000AF03463960FB7197F9073041
:10346000002B0ADB3B68DAB20C4997F907301201EE
:10347000D2B20B4483F800230AE03B68DAB2084971
:10348000FB7903F00F03043B1201D2B20B441A760E
:1034900000BF0C37BD4680BC704700BF00E100E0B4
:1034A00000ED00E080B489B000AFF860B9607A60E8
:1034B000FB6803F00703FB61FB69C3F10703042BFF
:1034C00028BF0423BB61FB690433062B02D9FB69C7
:1034D000033B00E000237B614FF0FF32BB6902FA3F
:1034E00003F3DA43BB681A407B699A404FF0FF311F
:1034F0007B6901FA03F3D9437B680B4013431846F9
:103500002437BD4680BC704780B582B000AF78607C
:103510007B68013BB3F1807F01D301230FE00A4AAE
:103520007B68013B53600F214FF0FF30FFF790FFA6
:10353000054B00229A60044B07221A6000231846AC
:103540000837BD4680BD00BF10E000E080B582B006
:1035500000AF78607868FFF709FF00BF0837BD4605
:1035600080BD80B586B000AF0346B9607A60FB735A
:1035700000237B61FFF71EFF78617A68B96878697C
:10358000FFF790FF024697F90F3011461846FFF7F4
:103590005FFF00BF1837BD4680BD80B582B000AF69
:1035A0000346FB7197F907301846FFF711FF00BF7C
:1035B0000837BD4680BD80B582B000AF0346FB71C1
:1035C00097F907301846FFF71FFF00BF0837BD46C1
:1035D00080BD80B582B000AF78607868FFF794FF57
:1035E000034618460837BD4680BD80B582B000AF9F
:1035F00078607B68002B01D1012376E07B685B6AF1
:10360000002B08D17B685B68B3F5827F09D07B68AB
:103610000022DA6105E07B6800221A617B680022E3
:103620005A617B6800229A627B6893F85130DBB262
:10363000002B06D17B68002283F85020786803F0C5
:10364000F3FA7B68022283F851207B681B681A68B2
:103650007B681B6822F040021A607B685B6803F499
:1036600082727B689B6803F404431A437B68DB68BF
:1036700003F400631A437B681B6903F002031A43D7
:103680007B685B6903F001031A437B689B6903F461
:1036900000731A437B68DB6903F038031A437B68C5
:1036A0001B6A03F0800342EA03017B689B6A03F410
:1036B00000527B681B680A431A607B689B691A0C7E
:1036C0007B681B6802F004025A607B681B68DA6939
:1036D0007B681B6822F40062DA617B6800225A650D
:1036E0007B68012283F85120002318460837BD4625
:1036F00080BD80B58AB000AFF860B9607A607B8029
:1037000001237B62FEF76CFC3862FB6893F8513052
:10371000FB77FB685B68BB617B88FB82FB7F012BCF
:103720000CD0BB69B3F5827F06D1FB689B68002B88
:1037300002D1FB7F042B01D002237FE1BB68002B69
:1037400005D07B68002B02D07B88002B01D10123A0
:1037500074E1FB6893F85030012B01D102236DE135
:10376000FB68012283F85020FB6893F85130DBB2EC
:10377000042B03D0FB68052283F85120FB6800224C
:103780005A65FB687A689A63FB687A88DA87FB680F
:103790007A889A87FB68BA681A63FB687A88DA863F
:1037A000FB687A889A86FB6800221A64FB6800220C
:1037B0005A64FB681B681B6803F04003402B07D06A
:1037C000FB681B681A68FB681B6842F040021A60BD
:1037D000FB68DB68B3F5006F7ED1FB685B68002B8C
:1037E00002D0FB8A012B6CD1FB681B6B1A88FB682B
:1037F0001B68DA60FB681B6B9A1CFB681A63FB682A
:10380000DB8E9BB2013B9AB2FB68DA8659E0FB681B
:103810001B689B6803F00203022B1BD1FB68DB8E45
:103820009BB2002B16D07B6A012B13D1FB681B6B5C
:103830001A88FB681B68DA60FB681B6B9A1CFB68C4
:103840001A63FB68DB8E9BB2013B9AB2FB68DA8697
:1038500000237B62FB681B689B6803F00103012B5C
:1038600019D1FB68DB8F9BB2002B14D0FB681B685F
:10387000DA68FB689B6B92B21A80FB689B6B9A1CA0
:10388000FB689A63FB68DB8F9BB2013B9AB2FB68D3
:10389000DA8701237B62FEF7A3FB02463B6AD31A59
:1038A0003A6B9A420DD83B6BB3F1FF3F09D0FB68EE
:1038B000012283F85120FB68002283F85020032363
:1038C000BCE0FB68DB8E9BB2002BA0D1FB68DB8FDA
:1038D0009BB2002B9BD182E0FB685B68002B02D07F
:1038E000FB8A012B71D1FB681A6BFB681B680C33D8
:1038F00012781A70FB681B6B5A1CFB681A63FB6812
:10390000DB8E9BB2013B9AB2FB68DA865DE0FB6816
:103910001B689B6803F00203022B1CD1FB68DB8E43
:103920009BB2002B17D07B6A012B14D1FB681A6B5A
:10393000FB681B680C3312781A70FB681B6B5A1CEF
:10394000FB681A63FB68DB8E9BB2013B9AB2FB6893
:10395000DA8600237B62FB681B689B6803F0010327
:10396000012B19D1FB68DB8F9BB2002B14D0FB68B5
:103970001B68DA68FB689B6BD2B21A70FB689B6BA2
:103980005A1CFB689A63FB68DB8F9BB2013B9AB2BF
:10399000FB68DA8701237B62FEF722FB02463B6A63
:1039A000D31A3A6B9A4203D83B6BB3F1FF3F02D173
:1039B0003B6B002B09D1FB68012283F85120FB6887
:1039C000002283F85020032338E0FB68DB8E9BB293
:1039D000002B9CD1FB68DB8F9BB2002B97D13A6AFE
:1039E000396BF86800F09AF90346002B08D0FB68A1
:1039F00020225A65FB68002283F8502001231DE035
:103A0000FB689B68002B0AD100233B61FB681B68A5
:103A1000DB683B61FB681B689B683B613B69FB683B
:103A2000012283F85120FB68002283F85020FB68B4
:103A30005B6D002B01D0012300E0002318462837DE
:103A4000BD4680BD80B586B000AF78600023FB75B1
:103A50006A4B1B686A4AA2FB03235B0A642202FBCF
:103A600003F3FB60FB683B617B681B685A687B68FB
:103A70001B6822F020025A607B681B685B6803F0B9
:103A80008003002B17D07B685E4A5A643B69002B89
:103A900006D17B685B6D43F040027B685A6508E0A5
:103AA0003B69013B3B617B6893F85130DBB2072BEC
:103AB000ECD1FB683B617B681B685B6803F04003EB
:103AC000002B17D07B68504A1A643B69002B06D143
:103AD0007B685B6D43F040027B685A6508E03B6998
:103AE000013B3B617B6893F85130DBB2072BECD193
:103AF000FB683B617B681B685B6803F00203002B7B
:103B00002ED07B689B6C002B2AD07B689B6C00229C
:103B10005A637B689B6C1846FFF740FA0346002BFC
:103B200002D07B6840225A657B681B685A687B68B4
:103B30001B6822F002025A603B69002B06D17B68A9
:103B40005B6D43F040027B685A6509E03B69013BCD
:103B50003B617B681B689B6803F00203002BEBD082
:103B60007B681B685B6803F00103002B22D07B6835
:103B7000DB6C002B1ED07B68DB6C00225A637B68F9
:103B8000DB6C1846FFF70AFA0346002B02D07B686D
:103B900040225A657B681B681A687B681B6822F0A4
:103BA00040021A607B681B685A687B681B6822F0B9
:103BB00001025A607B680022DA877B680022DA867D
:103BC0007B685B6D402B02D10123FB7502E07B68B3
:103BD00000225A650023BB607B681B68DB68BB6002
:103BE0007B681B689B68BB60BB687B68012283F8AD
:103BF0005120FB7D18461837BD4680BD00000020CF
:103C0000F11976050D3E0008813D000880B588B0A9
:103C100000AFF860B9603B601346FB71FEF7E0F956
:103C20000246BB6A9B1A3A681344FB61FEF7D8F957
:103C3000B861394B1B685B011B0DFA6902FB03F38A
:103C40007B6154E03B68B3F1FF3F50D0FEF7C8F909
:103C50000246BB69D31AFA699A4202D9FB69002B62
:103C60003DD1FB681B685A68FB681B6822F0E002C4
:103C70005A60FB685B68B3F5827F11D1FB689B6873
:103C8000B3F5004F04D0FB689B68B3F5806F07D194
:103C9000FB681B681A68FB681B6822F040021A6008
:103CA000FB689B6AB3F5005F0FD1FB681B681A685D
:103CB000FB681B6822F400521A60FB681B681A68D4
:103CC000FB681B6842F400521A60FB68012283F80B
:103CD0005120FB68002283F85020032317E07B6902
:103CE000002B01D10023FB617B69013B7B61FB68F9
:103CF0001B689A68BB681340BA689A420CBF0123DC
:103D00000023DBB21A46FB799A429BD10023184666
:103D10002037BD4680BD00BF0000002080B586B0C2
:103D200002AFF860B9607A607B680093BB680122DB
:103D30000221F868FFF76AFF0346002B07D0FB68F3
:103D40005B6D43F02002FB685A65032313E07B6838
:103D50000093BB6800228021F868FFF757FF0346F5
:103D6000002B07D0FB685B6D43F02002FB685A65AF
:103D7000032300E0002318461037BD4680BD000035
:103D800080B485B000AF78600023FB601D4B1B68DA
:103D90001D4AA2FB03235B0A642202FB03F3BB6000
:103DA000BB68002B06D17B685B6D43F040027B68EB
:103DB0005A6509E0BB68013BBB607B681B689B6878
:103DC00003F00203002BEBD07B681B681A687B684A
:103DD0001B6822F040021A607B681B685A687B6887
:103DE0001B6822F0E0025A607B681B68DB68FB609E
:103DF000FB687B68072283F8512000BF1437BD465B
:103E000080BC704700000020F119760580B483B0B3
:103E100000AF78607B681B685A687B681B6822F07B
:103E200080025A607B681B681A687B681B6822F0F6
:103E300040021A607B68072283F8512000BF0C37CC
:103E4000BD4680BC704780B582B000AF78607B68AB
:103E5000002B01D1012341E07B6893F83D30DBB2B8
:103E6000002B06D17B68002283F83C20786802F0A2
:103E700071FF7B68022283F83D207B681A687B68AB
:103E800004331946104600F05BFA7B68012283F880
:103E900046207B68012283F83E207B68012283F85C
:103EA0003F207B68012283F840207B68012283F851
:103EB00041207B68012283F842207B68012283F83D
:103EC00043207B68012283F844207B68012283F829
:103ED00045207B68012283F83D20002318460837DF
:103EE000BD4680BD80B485B000AF78607B6893F834
:103EF0003D30DBB2012B01D001233AE07B68022286
:103F000083F83D207B681B68DA687B681B6842F099
:103F10000102DA607B681B68184A93420ED07B6806
:103F20001B68B3F1804F09D07B681B68144A934229
:103F300004D07B681B68134A934211D17B681B68CD
:103F40009B6803F00703FB60FB68062B10D07B68BF
:103F50001B681A687B681B6842F001021A6007E060
:103F60007B681B681A687B681B6842F001021A6054
:103F7000002318461437BD4680BC7047002C014012
:103F8000000400400008004080B584B000AF7860B5
:103F90007B681B68DB68FB607B681B681B69BB6018
:103FA000BB6803F00203002B20D0FB6803F0020380
:103FB000002B1BD07B681B686FF002021A617B68C4
:103FC00001221A777B681B689B6903F00303002BAF
:103FD00003D0786800F098F905E0786800F08BF974
:103FE000786800F09AF97B6800221A77BB6803F0C2
:103FF0000403002B20D0FB6803F00403002B1BD02C
:104000007B681B686FF004021A617B6802221A77D2
:104010007B681B689B6903F44073002B03D07868AE
:1040200000F072F905E0786800F065F9786800F052
:1040300074F97B6800221A77BB6803F00803002B31
:1040400020D0FB6803F00803002B1BD07B681B68A3
:104050006FF008021A617B6804221A777B681B687C
:10406000DB6903F00303002B03D0786800F04CF900
:1040700005E0786800F03FF9786800F04EF97B6859
:1040800000221A77BB6803F01003002B20D0FB68D6
:1040900003F01003002B1BD07B681B686FF010022D
:1040A0001A617B6808221A777B681B68DB6903F456
:1040B0004073002B03D0786800F026F905E078689B
:1040C00000F019F9786800F028F97B6800221A7767
:1040D000BB6803F00103002B0CD0FB6803F0010365
:1040E000002B07D07B681B686FF001021A617868AB
:1040F00002F04AFABB6803F08003002B0CD0FB6887
:1041000003F08003002B07D07B681B686FF08002F0
:104110001A61786800F07FFABB6803F04003002B57
:104120000CD0FB6803F04003002B07D07B681B68B2
:104130006FF040021A61786800F0F8F8BB6803F08D
:104140002003002B0CD0FB6803F02003002B07D0CA
:104150007B681B686FF020021A61786800F052FAE1
:1041600000BF1037BD4680BD80B584B000AF786019
:1041700039600023FB737B6893F83C30012B01D13D
:104180000223B4E07B68012283F83C207B68022292
:1041900083F83D207B681B689B68BB60BB6823F08D
:1041A0007703BB60BB6823F47F43BB607B681B68FD
:1041B000BA689A603B681B68B3F5005F3ED0B3F500
:1041C000005F00F28780B3F5805F00F08680B3F572
:1041D000805F7FD8702B1AD0702B7BD8602B50D08B
:1041E000602B77D8502B3CD0502B73D8402B58D015
:1041F000402B6FD8302B64D0302B6BD8202B60D065
:10420000202B67D8002B5CD0102B5AD062E07B6843
:1042100018683B6899683B685A683B68DB6800F03F
:1042200074F97B681B689B68BB60BB6843F07703CD
:10423000BB607B681B68BA689A604FE07B6818684F
:104240003B6899683B685A683B68DB6800F05DF939
:104250007B681B689A687B681B6842F480429A609E
:104260003CE07B6818683B6859683B68DB681A4625
:1042700000F0D4F87B681B685021184600F02BF939
:104280002CE07B6818683B6859683B68DB681A4615
:1042900000F0F2F87B681B686021184600F01BF9FB
:1042A0001CE07B6818683B6859683B68DB681A4605
:1042B00000F0B4F87B681B684021184600F00BF949
:1042C0000CE07B681A683B681B681946104600F0D2
:1042D00002F903E00123FB7300E000BF7B680122C9
:1042E00083F83D207B68002283F83C20FB7B184646
:1042F0001037BD4680BD80B483B000AF786000BF8A
:104300000C37BD4680BC704780B483B000AF786086
:1043100000BF0C37BD4680BC704780B483B000AF8F
:10432000786000BF0C37BD4680BC704780B483B056
:1043300000AF786000BF0C37BD4680BC70470000FE
:1043400080B485B000AF786039607B681B68FB6023
:104350007B682F4A93420BD07B68B3F1804F07D024
:104360007B682C4A934203D07B682B4A934208D146
:10437000FB6823F07003FB603B685B68FA681343DB
:10438000FB607B68224A93420BD07B68B3F1804F7D
:1043900007D07B681F4A934203D07B681E4A934232
:1043A00008D1FB6823F44073FB603B68DB68FA6864
:1043B0001343FB60FB6823F080023B685B69134397
:1043C000FB607B68FA681A603B689A687B68DA620F
:1043D0003B681A687B689A627B680D4A934203D1F6
:1043E0003B681A697B681A637B6801225A617B68A3
:1043F0001B6903F00103002B05D07B681B6923F0C8
:1044000001027B681A6100BF1437BD4680BC70474B
:10441000002C0140000400400008004080B487B038
:1044200000AFF860B9607A60FB681B6A7B61FB686B
:104430001B6A23F00102FB681A62FB689B693B61FF
:104440003B6923F0F0033B617B681B013A6913432E
:104450003B617B6923F00A037B617A69BB68134384
:104460007B61FB683A699A61FB687A691A6200BFEE
:104470001C37BD4680BC704780B487B000AFF86081
:10448000B9607A60FB681B6A7B61FB681B6A23F07A
:104490001002FB681A62FB689B693B613B6923F46D
:1044A00070433B617B681B033A6913433B617B6943
:1044B00023F0A0037B61BB681B017A6913437B6116
:1044C000FB683A699A61FB687A691A6200BF1C3717
:1044D000BD4680BC704780B485B000AF786039605D
:1044E0007B689B68FB60FB6823F07003FB603A68A5
:1044F000FB68134343F00703FB607B68FA689A602C
:1045000000BF1437BD4680BC704780B487B000AF91
:10451000F860B9607A603B60FB689B687B617B698F
:1045200023F47F437B613B681A027B681A43BB68B4
:1045300013437A6913437B61FB687A699A6000BF11
:104540001C37BD4680BC704780B485B000AF786032
:1045500039607B6893F83C30012B01D1022346E09F
:104560007B68012283F83C207B68022283F83D208F
:104570007B681B685B68FB607B681B689B68BB6033
:10458000FB6823F07003FB603B681B68FA68134309
:10459000FB607B681B68FA685A607B681B68164A78
:1045A00093420ED07B681B68B3F1804F09D07B68C3
:1045B0001B68124A934204D07B681B68104A9342DE
:1045C0000CD1BB6823F08003BB603B685B68BA68B2
:1045D0001343BB607B681B68BA689A607B680122E2
:1045E00083F83D207B68002283F83C200023184696
:1045F0001437BD4680BC7047002C014000040040C9
:104600000008004080B483B000AF786000BF0C3772
:10461000BD4680BC704780B483B000AF786000BFF7
:104620000C37BD4680BC704780B582B000AF786063
:104630007B68002B01D1012342E07B6893F8413075
:10464000DBB2002B06D17B68002283F8402078681B
:1046500002F010FC7B68242283F841207B681B68F1
:10466000DA687B681B6822F40052DA60786801F02F
:1046700001F87B681B681A697B681B6822F490420A
:104680001A617B681B685A697B681B6822F02A02E2
:104690005A617B681B68DA687B681B6842F40052C9
:1046A000DA607B6800225A647B68202283F841200C
:1046B0007B68202283F842207B6800225A63002313
:1046C00018460837BD4680BD80B582B000AF78601F
:1046D0007B68002B01D1012324E07B68242283F82E
:1046E00041207B681B68DA687B681B6822F40052F3
:1046F000DA60786802F03CFC7B6800225A647B68D0
:10470000002283F841207B68002283F842207B68E6
:1047100000221A637B6800225A637B68002283F8B8
:104720004020002318460837BD4680BD80B58AB0BA
:1047300002AFF860B9603B601346FB8000237B61E9
:10474000FB6893F84130DBB2202B75D1BB68002B9E
:1047500002D0FB88002B01D101236EE0FB68002210
:104760005A64FB68212283F84120FDF739FC786107
:10477000FB68FA889A84FB68FA88DA84FB689B688D
:10478000B3F5805F08D1FB681B69002B04D10023BF
:10479000FB61BB68BB6103E0BB68FB610023BB61DD
:1047A0002EE03B6800937B6900228021F86800F0CE
:1047B000ACFC0346002B05D0FB68202283F8412087
:1047C00003233AE0FB69002B0BD1BB691B881A4617
:1047D000FB681B68C2F308025A60BB690233BB6105
:1047E00007E0FB691A78FB681B685A60FB690133B4
:1047F000FB61FB68DB8C9BB2013B9AB2FB68DA84FD
:10480000FB68DB8C9BB2002BCBD13B6800937B69B0
:1048100000224021F86800F078FC0346002B05D008
:10482000FB68202283F84120032306E0FB68202256
:1048300083F84120002300E0022318462037BD46BC
:1048400080BD80B584B000AFF860B9601346FB80CE
:10485000FB6893F84230DBB2202B12D1BB68002BEF
:1048600002D0FB88002B01D101230BE0FB68002262
:104870001A63FB881A46B968F86800F09FFC034683
:1048800000E0022318461037BD4680BD80B590B0C9
:1048900000AF78600023FB637B681B685B6903F0F3
:1048A0008003002B14BF01230023DBB2FB637B6872
:1048B00093F84130DBB2212B28D1FB6B002B25D0A4
:1048C0007B681B6814337B627B6A53E8003F3B6262
:1048D0003B6A23F08003BB637B681B681433BA6BAD
:1048E0003A63FB62F96A3A6B41E80023BB62BB6A38
:1048F000002BE5D17B689B6B002B04D07B689B6B06
:104900001846FEF74BFB786800F0F2FC7B681B68EA
:104910005B6903F04003002B14BF01230023DBB2CB
:10492000FB637B6893F84230DBB2222B28D1FB6B10
:10493000002B25D07B681B6814333B613B6953E82F
:10494000003FFB60FB6823F040037B637B681B68D0
:1049500014337A6BFA61BB61B969FA6941E80023E3
:104960007B617B69002BE5D17B68DB6B002B04D07E
:104970007B68DB6B1846FEF711FB786800F0DFFC04
:10498000002318464037BD4680BD000080B5BAB050
:1049900000AF78607B681B681B68C7F8E4307B68F1
:1049A0001B68DB68C7F8E0307B681B685B69C7F889
:1049B000DC300023C7F8D8300023C7F8D430D7F84C
:1049C000E43003F00F03C7F8D830D7F8D830002B05
:1049D0000FD1D7F8E43003F02003002B09D0D7F82B
:1049E000E03003F02003002B03D0786800F084FD52
:1049F0005BE2D7F8D830002B00F0DE80D7F8DC304F
:104A000003F00103002B06D1D7F8E03003F49073D4
:104A1000002B00F0D180D7F8E43003F00103002B25
:104A20000BD0D7F8E03003F48073002B05D07B68FF
:104A30005B6C43F001027B685A64D7F8E43003F002
:104A40000403002B0BD0D7F8DC3003F00103002B5C
:104A500005D07B685B6C43F002027B685A64D7F830
:104A6000E43003F00203002B0BD0D7F8DC3003F066
:104A70000103002B05D07B685B6C43F004027B686C
:104A80005A64D7F8E43003F00803002B11D0D7F8AC
:104A9000E03003F02003002B05D1D7F8DC3003F021
:104AA0000103002B05D07B685B6C43F008027B6838
:104AB0005A647B685B6C002B00F0F281D7F8E4301D
:104AC00003F02003002B08D0D7F8E03003F02003D8
:104AD000002B02D0786800F00FFD7B681B685B69D3
:104AE00003F04003002B14BF01230023DBB2C7F8FF
:104AF000D4307B685B6C03F00803002B03D1D7F83C
:104B0000D430002B4FD0786800F019FC7B681B680C
:104B10005B6903F04003002B41D07B681B681433B2
:104B2000C7F89C30D7F89C3053E8003FC7F898305E
:104B3000D7F8983023F04003C7F8D0307B681B6863
:104B40001433D7F8D020C7F8A820C7F8A430D7F876
:104B5000A410D7F8A82041E80023C7F8A030D7F860
:104B6000A030002BD9D17B68DB6B002B13D07B6886
:104B7000DB6B7E4A5A637B68DB6B1846FEF74AFAAA
:104B80000346002B16D07B68DB6B5B6B7A68D26BBD
:104B9000104698470EE0786800F0A5F90AE07868BA
:104BA00000F0A1F906E0786800F09DF97B6800222A
:104BB0005A6475E100BF73E17B681B6B012B40F009
:104BC0004F81D7F8E43003F01003002B00F0488148
:104BD000D7F8E03003F01003002B00F041810023F0
:104BE000BB607B681B681B68BB607B681B685B687D
:104BF000BB60BB687B681B685B6903F04003002BEC
:104C000000F0B6807B68DB6B1B685B68A7F8BE3082
:104C1000B7F8BE30002B00F045817B689B8DB7F85C
:104C2000BE209A4280F03E817B68B7F8BE20DA85CC
:104C30007B68DB6B9B69202B00F088807B681B689E
:104C40000C33C7F88830D7F8883053E8003FC7F8EE
:104C50008430D7F8843023F48073C7F8B8307B6889
:104C60001B680C33D7F8B820C7F89420C7F89030E9
:104C7000D7F89010D7F8942041E80023C7F88C307B
:104C8000D7F88C30002BD9D17B681B6814337B6735
:104C90007B6F53E8003F3B673B6F23F00103C7F88E
:104CA000B4307B681B681433D7F8B420C7F8802071
:104CB000FB67F96FD7F8802041E80023BB67BB6F23
:104CC000002BE1D17B681B6814333B663B6E53E8D5
:104CD000003FFB65FB6D23F04003C7F8B0307B68F5
:104CE0001B681433D7F8B020FA66BB66B96EFA6E4B
:104CF00041E800237B667B6E002BE3D17B6820229A
:104D000083F842207B6800221A637B681B680C339F
:104D1000FB64FB6C53E8003FBB64BB6C23F01003E7
:104D2000C7F8AC307B681B680C33D7F8AC20BA6589
:104D30007B65796DBA6D41E800233B653B6D002BC7
:104D4000E3D17B68DB6B1846FEF728F97B6802220B
:104D50005A637B689A8D7B68DB8D9BB2D31A9BB2BA
:104D60001946786800F0C8F89CE000BF03540008BA
:104D70007B689A8D7B68DB8D9BB2D31AA7F8CE3007
:104D80007B68DB8D9BB2002B00F08E80B7F8CE30B5
:104D9000002B00F089807B681B680C33BB63BB6B06
:104DA00053E8003F7B637B6B23F49073C7F8C830F4
:104DB0007B681B680C33D7F8C8207A643B64396C75
:104DC0007A6C41E80023FB63FB6B002BE3D17B682B
:104DD0001B6814337B627B6A53E8003F3B623B6A8B
:104DE00023F00103C7F8C4307B681B681433D7F87D
:104DF000C4203A63FB62F96A3A6B41E80023BB6264
:104E0000BB6A002BE3D17B68202283F842207B68B9
:104E100000221A637B681B680C333B613B6953E8D3
:104E2000003FFB60FB6823F01003C7F8C0307B68CD
:104E30001B680C33D7F8C020FA61BB61B969FA6905
:104E400041E800237B617B69002BE3D17B68022270
:104E50005A63B7F8CE301946786800F04DF823E071
:104E6000D7F8E43003F08003002B09D0D7F8E03006
:104E700003F08003002B03D0786800F0D6FA14E02A
:104E8000D7F8E43003F04003002B0ED0D7F8E03021
:104E900003F04003002B08D0786800F015FB04E015
:104EA00000BF02E000BF00E000BFE837BD4680BDA4
:104EB00080B483B000AF786000BF0C37BD4680BCC3
:104EC000704780B483B000AF786000BF0C37BD4638
:104ED00080BC704780B483B000AF786000BF0C37EF
:104EE000BD4680BC704780B483B000AF786000BF1F
:104EF0000C37BD4680BC704780B483B000AF78608B
:104F00000B467B8000BF0C37BD4680BC704780B528
:104F10009CB000AF78607B685B6AFB667B681B684F
:104F20001B6803F02003002B72D1FB6E0022DA8590
:104F3000FB6E1B680C33FB64FB6C53E8003FBB64E7
:104F4000BB6C23F48073BB66FB6E1B680C33BA6EBC
:104F5000BA657B65796DBA6D41E800233B653B6DB1
:104F6000002BE5D1FB6E1B681433BB63BB6B53E8AE
:104F7000003F7B637B6B23F001037B66FB6E1B684A
:104F800014337A6E7A643B64396C7A6C41E800239E
:104F9000FB63FB6B002BE5D1FB6E1B6814337B625C
:104FA0007B6A53E8003F3B623B6A23F040033B6669
:104FB000FB6E1B6814333A6E3A63FB62F96A3A6B14
:104FC00041E80023BB62BB6A002BE5D1FB6E2022C7
:104FD00083F84220FB6E1B6B012B19D1FB6E1B6803
:104FE0000C333B613B6953E8003FFB60FB6823F0F7
:104FF0001003FB65FB6E1B680C33FA6DFA61BB6135
:10500000B969FA6941E800237B617B69002BE5D12E
:10501000FB6E00225A63FB6E1B6B012B06D1FB6EED
:105020009B8D1946F86EFFF767FF02E0F86EFFF7F9
:1050300048FF00BF7037BD4680BD80B584B000AF6B
:1050400078607B685B6AFB60FB6801225A63FB68DF
:105050001B6B012B08D1FB689B8D5B089BB219462B
:10506000F868FFF749FF02E0F868FFF733FF00BF79
:105070001037BD4680BD80B584B000AF7860002396
:10508000FB607B685B6ABB60BB681B685B6903F0A5
:105090008003002B14BF01230023DBB2FB60BB683D
:1050A00093F84130DBB2212B08D1FB68002B05D0EF
:1050B000BB680022DA84B86800F01AF9BB681B6884
:1050C0005B6903F04003002B14BF01230023DBB214
:1050D000FB60BB6893F84230DBB2222B08D1FB683F
:1050E000002B05D0BB680022DA85B86800F027F9EC
:1050F000BB685B6C43F01002BB685A64B868FFF78A
:10510000F2FE00BF1037BD4680BD80B586B000AF4F
:10511000F860B9603B601346FB713BE03B6AB3F15A
:10512000FF3F37D0FCF75CFF02463B68D31A3A6A70
:105130009A4202D33B6A002B01D103233AE0FB6879
:105140001B68DB6803F00403002B23D0BB68802BB3
:1051500020D0BB68402B1DD0FB681B681B6803F088
:105160000803082B16D100237B61FB681B681B68B2
:105170007B61FB681B685B687B617B69F86800F09A
:10518000DEF8FB6808225A64FB68002283F840209E
:1051900001230FE0FB681B681A68BB681340BA68FC
:1051A0009A420CBF01230023DBB21A46FB799A42D4
:1051B000B4D0002318461837BD4680BD80B598B0DE
:1051C00000AFF860B9601346FB80BA68FB689A626A
:1051D000FB68FA889A85FB6800225A64FB682222E1
:1051E00083F84220FB68DB6B3E4A9A62FB68DB6B0C
:1051F0003D4ADA62FB68DB6B3C4A1A63FB68DB6B97
:1052000000225A6307F10803FB65FB68D86BFB6853
:105210001B6804331946FB6D1A68FB88FDF75EFEB8
:1052200000233B61FB681B681B683B61FB681B68D4
:105230005B683B613B69FB681B69002B19D0FB680D
:105240001B680C333B643B6C53E8003FFB63FB6B18
:1052500043F48073BB65FB681B680C33BA6DFA645A
:10526000BB64B96CFA6C41E800237B647B6C002B57
:10527000E5D1FB681B681433FB62FB6A53E8003F0F
:10528000BB62BB6A43F001037B65FB681B68143398
:105290007A6DBA637B63796BBA6B41E800233B6339
:1052A0003B6B002BE5D1FB681B681433BB61BB690A
:1052B00053E8003F7B617B6943F040033B65FB683B
:1052C0001B6814333A6D7A623B62396A7A6A41E844
:1052D0000023FB61FB69002BE5D1002318466037F2
:1052E000BD4680BD0F4F00083B50000877500008B6
:1052F00080B489B000AF78607B681B680C33FB60BA
:10530000FB6853E8003FBB60BB6823F0C003FB6150
:105310007B681B680C33FA69BA617B617969BA6989
:1053200041E800233B613B69002BE5D17B682022EB
:1053300083F8412000BF2437BD4680BC704780B44D
:1053400095B000AF78607B681B680C337B637B6B28
:1053500053E8003F3B633B6B23F49073FB647B6833
:105360001B680C33FA6C3A64FB63F96B3A6C41E8E6
:105370000023BB63BB6B002BE5D17B681B68143338
:105380003B623B6A53E8003FFB61FB6923F001038A
:10539000BB647B681B681433BA6CFA62BB62B96A7F
:1053A000FA6A41E800237B627B6A002BE5D17B68C7
:1053B0001B6B012B19D17B681B680C33FB60FB68EE
:1053C00053E8003FBB60BB6823F010037B647B683D
:1053D0001B680C337A6CBA617B617969BA6941E800
:1053E00000233B613B69002BE5D17B68202283F8D9
:1053F00042207B6800221A6300BF5437BD4680BC40
:10540000704780B584B000AF78607B685B6AFB60F2
:10541000FB680022DA85FB680022DA84F868FFF76F
:1054200062FD00BF1037BD4680BD80B485B000AFBF
:1054300078607B6893F84130DBB2212B3ED17B68EA
:105440009B68B3F5805F14D17B681B69002B10D17A
:105450007B681B6AFB60FB681B881A467B681B68BD
:10546000C2F308025A607B681B6A9A1C7B681A6246
:1054700008E07B681B6A591C7A6811621A787B689D
:105480001B685A607B68DB8C9BB2013B9BB27A68DD
:105490001946D184002B0FD17B681B68DA687B68C2
:1054A0001B6822F08002DA607B681B68DA687B6820
:1054B0001B6842F04002DA60002300E00223184635
:1054C0001437BD4680BC704780B582B000AF7860AD
:1054D0007B681B68DA687B681B6822F04002DA6030
:1054E0007B68202283F841207868FFF7E1FC0023E5
:1054F00018460837BD4680BD80B58CB000AF7860D7
:105500007B6893F84230DBB2222B40F0AE807B68A0
:105510009B68B3F5805F17D17B681B69002B13D1A3
:105520000023FB627B689B6ABB627B681B685B68CD
:105530009BB2C3F308039AB2BB6A1A807B689B6A6A
:105540009A1C7B689A6226E07B689B6AFB62002358
:10555000BB627B689B68B3F5805F07D07B689B6804
:10556000002B0AD17B681B69002B06D17B681B6866
:105570005B68DAB2FB6A1A7008E07B681B685B68DC
:10558000DBB203F07F03DAB2FB6A1A707B689B6AB6
:105590005A1C7B689A627B68DB8D9BB2013B9BB295
:1055A0007A681946D185002B5DD17B681B68DA6863
:1055B0007B681B6822F02002DA607B681B68DA686F
:1055C0007B681B6822F48072DA607B681B685A690A
:1055D0007B681B6822F001025A617B68202283F8F5
:1055E00042207B6800225A637B681B6B012B35D1FC
:1055F0007B6800221A637B681B680C337B617B69C4
:1056000053E8003F3B613B6923F010037B627B68FA
:105610001B680C337A6A3A62FB61F9693A6A41E8BD
:105620000023BB61BB69002BE5D17B681B681B684D
:1056300003F01003102B0AD10023FB607B681B686A
:105640001B68FB607B681B685B68FB60FB687B68B2
:105650009B8D19467868FFF74FFC02E07868FFF7EA
:1056600030FC002302E0002300E00223184630371C
:10567000BD4680BD80B584B000AF78607B681B6894
:105680001B6923F440517B68DA687B681B680A4316
:105690001A617B689A687B681B691A437B685B693F
:1056A0001343BB607B681B68DB6823F4B05323F0B3
:1056B0000C037A681268B9680B43D3607B681B6877
:1056C0005B6923F440717B689A697B681B680A43B5
:1056D0005A617B681B682C4A934203D1FDF78CF812
:1056E000F86002E0FDF774F8F860FA6813469B0072
:1056F00013449A001A447B685B689B00B2FBF3F387
:10570000224AA2FB03235B091901FA6813469B0096
:1057100013449A001A447B685B689B00B2FBF3F267
:105720001A4BA3FB02035B09642000FB03F3D31AAB
:105730001B013233154AA2FB03235B0903F0F0037C
:105740001944FA6813469B0013449A001A447B6874
:105750005B689B00B2FBF3F20C4BA3FB02035B09FB
:10576000642000FB03F3D31A1B013233074AA2FB68
:1057700003235B0903F00F027B681B680A449A60ED
:1057800000BF1037BD4680BD003801401F85EB517A
:1057900080B582B000AF0346FB71104B1B781846F2
:1057A000FA790F4903465B0003445B00134451F848
:1057B0002330A3F500031846FBF7A2F903464FF088
:1057C00050511846FBF7F0F9034606491846FBF717
:1057D000EBF9034618460837BD4680BDAD010020F1
:1057E000B001002000401C45B0B584B000AF786027
:1057F0000023FB600C4B5B78DBB2002B18D100233D
:10580000FB600BE0FB689B007A6813441A68074949
:10581000FB6841F82320FB680133FB60FB68052B24
:10582000F0DD00F04FBE00BF08010020A8000020FE
:10583000BB4B5B78DBB2012B40F00A84B94B1A6892
:105840007B681B6819461046FBF7AEF903461846FD
:10585000FAF7E2FDB0A3D3E90023FAF75FFF0246AF
:105860000B4614461D46AF4B5A687B6804331B68D1
:1058700019461046FBF798F903461846FAF7CCFD8F
:10588000A5A3D3E90023FAF749FF02460B462046B9
:105890002946FAF763FC02460B4614461D46A14B07
:1058A0009A687B6808331B6819461046FBF77CF939
:1058B00003461846FAF7B0FD97A3D3E90023FAF799
:1058C0002DFF02460B4620462946FAF747FC0246C2
:1058D0000B4614461D46934BDA687B680C331B68F5
:1058E00019461046FBF760F903461846FAF794FD8F
:1058F00089A3D3E90023FAF711FF02460B4620469D
:105900002946FAF72BFC02460B4614461D46854BEA
:105910001A697B6810331B6819461046FBF744F977
:1059200003461846FAF778FD7BA3D3E90023FAF77C
:10593000F5FE02460B4620462946FAF70FFC0246C2
:105940000B4614461D46774B5A697B6814331B6817
:1059500019461046FBF728F903461846FAF75CFD8E
:105960006DA3D3E90023FAF7D9FE02460B46204681
:105970002946FAF7F3FB02460B4610461946FAF79A
:10598000B5FF0346684A1360664B9A697B681B68DB
:1059900019461046FBF708F903461846FAF73CFD8E
:1059A0005DA3D3E90023FAF7B9FE02460B4614467D
:1059B0001D465C4BDA697B6804331B681946104648
:1059C000FBF7F2F803461846FAF726FD52A3D3E98F
:1059D0000023FAF7A3FE02460B4620462946FAF7B3
:1059E000BDFB02460B4614461D464E4B1A6A7B68A9
:1059F00008331B6819461046FBF7D6F803461846CD
:105A0000FAF70AFD44A3D3E90023FAF787FE02461A
:105A10000B4620462946FAF7A1FB02460B461446E0
:105A20001D46404B5A6A7B680C331B68194610466A
:105A3000FBF7BAF803461846FAF7EEFC36A3D3E9AB
:105A40000023FAF76BFE02460B4620462946FAF77A
:105A500085FB02460B4614461D46324B9A6A7B680C
:105A600010331B6819461046FBF79EF8034618468C
:105A7000FAF7D2FC28A3D3E90023FAF74FFE024637
:105A80000B4620462946FAF769FB02460B461446A8
:105A90001D46244BDA6A7B6814331B68194610468E
:105AA000FBF782F803461846FAF7B6FC1AA3D3E9C7
:105AB0000023FAF733FE02460B4620462946FAF742
:105AC0004DFB02460B4610461946FAF70FFF0346F8
:105AD000154A5360134B1A6B7B681B6819461046B6
